{
  "_format": "hh-sol-artifact-1",
  "contractName": "FilecoinMarketConsumer",
  "sourceName": "contracts/filecoin-api-examples/FilecoinMarketConsumer.sol",
  "abi": [
    {
      "inputs": [
        {
          "internalType": "int256",
          "name": "errorCode",
          "type": "int256"
        }
      ],
      "name": "ActorError",
      "type": "error"
    },
    {
      "inputs": [],
      "name": "ActorNotFound",
      "type": "error"
    },
    {
      "inputs": [],
      "name": "FailToCallActor",
      "type": "error"
    },
    {
      "inputs": [
        {
          "internalType": "uint64",
          "name": "",
          "type": "uint64"
        }
      ],
      "name": "InvalidCodec",
      "type": "error"
    },
    {
      "inputs": [],
      "name": "InvalidResponseLength",
      "type": "error"
    },
    {
      "inputs": [
        {
          "internalType": "uint256",
          "name": "balance",
          "type": "uint256"
        },
        {
          "internalType": "uint256",
          "name": "value",
          "type": "uint256"
        }
      ],
      "name": "NotEnoughBalance",
      "type": "error"
    },
    {
      "inputs": [],
      "name": "activationStatus",
      "outputs": [
        {
          "internalType": "CommonTypes.ChainEpoch",
          "name": "activated",
          "type": "int64"
        },
        {
          "internalType": "CommonTypes.ChainEpoch",
          "name": "terminated",
          "type": "int64"
        }
      ],
      "stateMutability": "view",
      "type": "function"
    },
    {
      "inputs": [],
      "name": "clientCollateral",
      "outputs": [
        {
          "internalType": "bytes",
          "name": "val",
          "type": "bytes"
        },
        {
          "internalType": "bool",
          "name": "neg",
          "type": "bool"
        }
      ],
      "stateMutability": "view",
      "type": "function"
    },
    {
      "inputs": [],
      "name": "dealClientActorId",
      "outputs": [
        {
          "internalType": "uint64",
          "name": "",
          "type": "uint64"
        }
      ],
      "stateMutability": "view",
      "type": "function"
    },
    {
      "inputs": [],
      "name": "dealCommitment",
      "outputs": [
        {
          "internalType": "bytes",
          "name": "data",
          "type": "bytes"
        },
        {
          "internalType": "uint64",
          "name": "size",
          "type": "uint64"
        }
      ],
      "stateMutability": "view",
      "type": "function"
    },
    {
      "inputs": [],
      "name": "dealLabel",
      "outputs": [
        {
          "internalType": "bytes",
          "name": "data",
          "type": "bytes"
        },
        {
          "internalType": "bool",
          "name": "isString",
          "type": "bool"
        }
      ],
      "stateMutability": "view",
      "type": "function"
    },
    {
      "inputs": [],
      "name": "dealPricePerEpoch",
      "outputs": [
        {
          "internalType": "bytes",
          "name": "val",
          "type": "bytes"
        },
        {
          "internalType": "bool",
          "name": "neg",
          "type": "bool"
        }
      ],
      "stateMutability": "view",
      "type": "function"
    },
    {
      "inputs": [],
      "name": "dealProviderActorId",
      "outputs": [
        {
          "internalType": "uint64",
          "name": "",
          "type": "uint64"
        }
      ],
      "stateMutability": "view",
      "type": "function"
    },
    {
      "inputs": [],
      "name": "dealTerm",
      "outputs": [
        {
          "internalType": "CommonTypes.ChainEpoch",
          "name": "start",
          "type": "int64"
        },
        {
          "internalType": "CommonTypes.ChainEpoch",
          "name": "end",
          "type": "int64"
        }
      ],
      "stateMutability": "view",
      "type": "function"
    },
    {
      "inputs": [],
      "name": "isDealActivated",
      "outputs": [
        {
          "internalType": "bool",
          "name": "",
          "type": "bool"
        }
      ],
      "stateMutability": "view",
      "type": "function"
    },
    {
      "inputs": [],
      "name": "providerCollateral",
      "outputs": [
        {
          "internalType": "bytes",
          "name": "val",
          "type": "bytes"
        },
        {
          "internalType": "bool",
          "name": "neg",
          "type": "bool"
        }
      ],
      "stateMutability": "view",
      "type": "function"
    },
    {
      "inputs": [
        {
          "internalType": "uint64",
          "name": "dealId",
          "type": "uint64"
        }
      ],
      "name": "storeAll",
      "outputs": [],
      "stateMutability": "nonpayable",
      "type": "function"
    },
    {
      "inputs": [
        {
          "internalType": "uint64",
          "name": "dealId",
          "type": "uint64"
        }
      ],
      "name": "storeClientCollateral",
      "outputs": [],
      "stateMutability": "nonpayable",
      "type": "function"
    },
    {
      "inputs": [
        {
          "internalType": "uint64",
          "name": "dealId",
          "type": "uint64"
        }
      ],
      "name": "storeDealActivationStatus",
      "outputs": [],
      "stateMutability": "nonpayable",
      "type": "function"
    },
    {
      "inputs": [
        {
          "internalType": "uint64",
          "name": "dealId",
          "type": "uint64"
        }
      ],
      "name": "storeDealClient",
      "outputs": [],
      "stateMutability": "nonpayable",
      "type": "function"
    },
    {
      "inputs": [
        {
          "internalType": "uint64",
          "name": "dealId",
          "type": "uint64"
        }
      ],
      "name": "storeDealClientProvider",
      "outputs": [],
      "stateMutability": "nonpayable",
      "type": "function"
    },
    {
      "inputs": [
        {
          "internalType": "uint64",
          "name": "dealId",
          "type": "uint64"
        }
      ],
      "name": "storeDealCommitment",
      "outputs": [],
      "stateMutability": "nonpayable",
      "type": "function"
    },
    {
      "inputs": [
        {
          "internalType": "uint64",
          "name": "dealId",
          "type": "uint64"
        }
      ],
      "name": "storeDealLabel",
      "outputs": [],
      "stateMutability": "nonpayable",
      "type": "function"
    },
    {
      "inputs": [
        {
          "internalType": "uint64",
          "name": "dealId",
          "type": "uint64"
        }
      ],
      "name": "storeDealTerm",
      "outputs": [],
      "stateMutability": "nonpayable",
      "type": "function"
    },
    {
      "inputs": [
        {
          "internalType": "uint64",
          "name": "dealId",
          "type": "uint64"
        }
      ],
      "name": "storeDealTotalPrice",
      "outputs": [],
      "stateMutability": "nonpayable",
      "type": "function"
    },
    {
      "inputs": [
        {
          "internalType": "uint64",
          "name": "dealId",
          "type": "uint64"
        }
      ],
      "name": "storeDealVerificaton",
      "outputs": [],
      "stateMutability": "nonpayable",
      "type": "function"
    },
    {
      "inputs": [
        {
          "internalType": "uint64",
          "name": "dealId",
          "type": "uint64"
        }
      ],
      "name": "storeProviderCollateral",
      "outputs": [],
      "stateMutability": "nonpayable",
      "type": "function"
    }
  ],
  "bytecode": "0x608060405234801561001057600080fd5b506125f2806100206000396000f3fe608060405234801561001057600080fd5b50600436106101775760003560e01c80639db0f72c116100d8578063d5f268e71161008c578063e6171e1c11610066578063e6171e1c14610327578063f3d4ef291461032f578063fca9226d1461034257600080fd5b8063d5f268e7146102d3578063d7d06d44146102e6578063e3a5cee8146102f957600080fd5b8063afaef4b9116100bd578063afaef4b914610282578063b693420b146102a0578063c5f3b1af146102c057600080fd5b80639db0f72c14610267578063a0b19fd51461027a57600080fd5b80634c89deac1161012f5780636dd64d4c116101145780636dd64d4c146102125780637f6c82351461021a57806395f298cc1461024657600080fd5b80634c89deac146101ec578063519b6837146101ff57600080fd5b806310af7c861161016057806310af7c86146101b15780632b9e649f146101c6578063481ed8e0146101d957600080fd5b8063047a90c51461017c5780630958f87b1461019b575b600080fd5b610184610355565b604051610192929190611b90565b60405180910390f35b6101a36103f7565b604051610192929190611bb8565b6101c46101bf366004611bfa565b610492565b005b6101c46101d4366004611bfa565b6104e2565b6101c46101e7366004611bfa565b610532565b6101c46101fa366004611bfa565b610566565b6101c461020d366004611bfa565b6105af565b6101a36105e8565b60055461023890600781810b91680100000000000000009004900b82565b604051610192929190611c3f565b60025461025a9067ffffffffffffffff1681565b6040516101929190611c5a565b6101c4610275366004611bfa565b6105f7565b6101a3610625565b600c5461023890600781810b91680100000000000000009004900b82565b60025461025a9068010000000000000000900467ffffffffffffffff1681565b6101c46102ce366004611bfa565b610634565b6101c46102e1366004611bfa565b61064e565b6101c46102f4366004611bfa565b610668565b60025461031a90700100000000000000000000000000000000900460ff1681565b6040516101929190611c68565b6101a36106b8565b6101c461033d366004611bfa565b6106c7565b6101c4610350366004611bfa565b610724565b60038054819061036490611c8c565b80601f016020809104026020016040519081016040528092919081815260200182805461039090611c8c565b80156103dd5780601f106103b2576101008083540402835291602001916103dd565b820191906000526020600020905b8154815290600101906020018083116103c057829003601f168201915b5050506001909301549192505067ffffffffffffffff1682565b600a8054819061040690611c8c565b80601f016020809104026020016040519081016040528092919081815260200182805461043290611c8c565b801561047f5780601f106104545761010080835404028352916020019161047f565b820191906000526020600020905b81548152906001019060200180831161046257829003601f168201915b5050506001909301549192505060ff1682565b61049b8161073e565b60028054911515700100000000000000000000000000000000027fffffffffffffffffffffffffffffff00ffffffffffffffffffffffffffffffff90921691909117905550565b6104eb81610781565b8051600c805460209093015167ffffffffffffffff90811668010000000000000000026fffffffffffffffffffffffffffffffff1990941692169190911791909117905550565b61053b816107cf565b600260086101000a81548167ffffffffffffffff021916908367ffffffffffffffff16021790555050565b61056f8161080a565b805160039081906105809082611d6b565b50602091909101516001909101805467ffffffffffffffff191667ffffffffffffffff90921691909117905550565b6105b881610859565b8051600a9081906105c99082611d6b565b50602091909101516001909101805460ff191691151591909117905550565b60008054819061040690611c8c565b610600816108a8565b6002805467ffffffffffffffff191667ffffffffffffffff9290921691909117905550565b60088054819061040690611c8c565b61063d816108d8565b805160069081906105c99082611d6b565b6106578161091c565b805160089081906105c99082611d6b565b61067181610960565b80516005805460209093015167ffffffffffffffff90811668010000000000000000026fffffffffffffffffffffffffffffffff1990941692169190911791909117905550565b60068054819061040690611c8c565b6106d081610724565b6106d9816105f7565b6106e281610532565b6106eb81610566565b6106f481610668565b6106fd81610634565b6107068161064e565b61070f816105af565b61071881610492565b610721816104e2565b50565b61072d816109a3565b805160009081906105c99082611d6b565b6000806107548367ffffffffffffffff166109f2565b9050600061076e6005639c9ac81960518560006001610a2b565b905061077981610b38565b949350505050565b604080518082019091526000808252602082015260006107aa8367ffffffffffffffff166109f2565b905060006107c46005639904f2ff60518560006001610a2b565b905061077981610b4f565b6000806107e58367ffffffffffffffff166109f2565b905060006107ff60056337bc36da60518560006001610a2b565b905061077981610bb3565b60408051808201909152606081526000602082015260006108348367ffffffffffffffff166109f2565b9050600061084e6005634505760a60518560006001610a2b565b905061077981610bc1565b60408051808201909152606081526000602082015260006108838367ffffffffffffffff166109f2565b9050600061089d600563b2059c4960518560006001610a2b565b905061077981610c3e565b6000806108be8367ffffffffffffffff166109f2565b905060006107ff60056307a1f05160518560006001610a2b565b60408051808201909152606081526000602082015260006109028367ffffffffffffffff166109f2565b9050600061089d600563ff88e83c60518560006001610a2b565b60408051808201909152606081526000602082015260006109468367ffffffffffffffff166109f2565b9050600061089d6005630bf46c5760518560006001610a2b565b604080518082019091526000808252602082015260006109898367ffffffffffffffff166109f2565b905060006107c460056309c30b2060518560006001610a2b565b60408051808201909152606081526000602082015260006109cd8367ffffffffffffffff166109f2565b905060006109e760056302c3738660518560006001610a2b565b905061077981610ca2565b60606000610a098367ffffffffffffffff16610cd9565b90506000610a1682610d27565b9050610a228185610d48565b61077981610d58565b6060610a4b73fe0000000000000000000000000000000000000584610d8d565b60008073fe00000000000000000000000000000000000005888686610a71576000610a74565b60015b8a8a8e604051602001610a8c96959493929190611e50565b60408051601f1981840301815290829052610aa691611ed3565b600060405180830381855af49150503d8060008114610ae1576040519150601f19603f3d011682016040523d82523d6000602084013e610ae6565b606091505b509150915081610b22576040517f8a7db5bf00000000000000000000000000000000000000000000000000000000815260040160405180910390fd5b610b2b81610e0d565b9998505050505050505050565b60008080610b468482610f1b565b50949350505050565b6040805180820190915260008082526020820152600080610b708482610f87565b9250905060028114610b8457610b84611edf565b610b8e8483610fd4565b60079190910b84529150610ba28483610fd4565b5060070b6020840152509092915050565b60008080610b468482610fee565b604080518082019091526060815260006020820152600080610be38482610f87565b925090508015610c1e57610bf78483611030565b9084529150610c068483610fee565b67ffffffffffffffff90911660208501529150610c37565b6040805160008082526020808301909352908552908401525b5050919050565b604080518082019091526060808252600060208301819052835115610c7c57610c678482611030565b8151919350915015610c7c57610779826111a1565b505060408051600081830181815260608301909352918152602081019190915292915050565b604080518082019091526060815260006020820152604080518082019091526060815260006020820181905290610b46848361134a565b600060178211610ceb57506001919050565b60ff8211610cfb57506002919050565b61ffff8211610d0c57506003919050565b63ffffffff8211610d1f57506005919050565b506009919050565b610d2f611af3565b8051610d3b908361149c565b5060006020820152919050565b610d5482600083611516565b5050565b60608160200151600014610d875760405162461bcd60e51b8152600401610d7e90611f2c565b60405180910390fd5b50515190565b4781811015610dcc5780826040517f8f0f4206000000000000000000000000000000000000000000000000000000008152600401610d7e929190611f3c565b823f151580610e07576040517f64d954b000000000000000000000000000000000000000000000000000000000815260040160405180910390fd5b50505050565b6060600080600084806020019051810190610e28919061204c565b9194509250905067ffffffffffffffff8216610e6357805115610e5e57604051630e74990760e01b815260040160405180910390fd5b610ee1565b67ffffffffffffffff821660511480610e86575067ffffffffffffffff82166071145b15610ead578051600003610e5e57604051630e74990760e01b815260040160405180910390fd5b816040517ff1f6bced000000000000000000000000000000000000000000000000000000008152600401610d7e9190611c5a565b821561077957826040517fd4bb6671000000000000000000000000000000000000000000000000000000008152600401610d7e91906120b7565b600080600080610f2b868661163c565b965090925067ffffffffffffffff16905060ff8216600714610f5f5760405162461bcd60e51b8152600401610d7e906120f9565b6015811480610f6e5750601481145b610f7a57610f7a611edf565b6014141595939450505050565b600080600080610f97868661163c565b965090925067ffffffffffffffff16905060ff8216600414610fcb5760405162461bcd60e51b8152600401610d7e9061213d565b95939450505050565b60008080610fe285856117b9565b90969095509350505050565b600080600080610ffe868661163c565b965090925067ffffffffffffffff16905060ff821615610fcb5760405162461bcd60e51b8152600401610d7e906121aa565b60606000806000611041868661163c565b965090925067ffffffffffffffff16905060ff821660061480611067575060ff82166002145b6110835760405162461bcd60e51b8152600401610d7e90612214565b60051960ff8316016110bd57611099868661163c565b965090925067ffffffffffffffff16905060ff82166002146110bd576110bd611edf565b60006110c9828761223a565b905060008267ffffffffffffffff8111156110e6576110e6611cb8565b6040519080825280601f01601f191660200182016040528015611110576020820181803683370190505b5090506000875b83811015611185578981815181106111315761113161224d565b602001015160f81c60f81b83838151811061114e5761114e61224d565b60200101906001600160f81b031916908160001a9053508161116f81612263565b925050808061117d90612263565b915050611117565b5081611191858a61223a565b9650965050505050509250929050565b60408051808201909152606081526000602082015281516000036111ea575050604080516080810182526001918101918252600060608201819052918152602081019190915290565b6000600183516111fa919061227d565b67ffffffffffffffff81111561121257611212611cb8565b6040519080825280601f01601f19166020018201604052801561123c576020820181803683370190505b5090506000836000815181106112545761125461224d565b01602001517fff00000000000000000000000000000000000000000000000000000000000000167f0100000000000000000000000000000000000000000000000000000000000000036112a5575060015b60015b845181101561132f578481815181106112c3576112c361224d565b01602001517fff0000000000000000000000000000000000000000000000000000000000000016836112f660018461227d565b815181106113065761130661224d565b60200101906001600160f81b031916908160001a9053508061132781612263565b9150506112a8565b50604080518082019091529182521515602082015292915050565b604080518082019091526060815260006020820152600080600061136e868661163c565b965090925067ffffffffffffffff16905060ff821660021480611394575060ff82166003145b6113b05760405162461bcd60e51b8152600401610d7e906122ea565b60006113bc828761223a565b905060008267ffffffffffffffff8111156113d9576113d9611cb8565b6040519080825280601f01601f191660200182016040528015611403576020820181803683370190505b5090506000875b83811015611478578981815181106114245761142461224d565b602001015160f81c60f81b8383815181106114415761144161224d565b60200101906001600160f81b031916908160001a9053508161146281612263565b925050808061147090612263565b91505061140a565b506040805180820190915282815260ff86166003146020820152611191858a61223a565b6040805180820190915260608152600060208201526114bc602083612310565b156114e4576114cc602083612310565b6114d790602061227d565b6114e1908361223a565b91505b60208084018390526040518085526000815290818401018181101561150857600080fd5b604052508290505b92915050565b60178167ffffffffffffffff161161153d578251610e079060e0600585901b168317611809565b60ff8167ffffffffffffffff161161157f578251611566906018611fe0600586901b1617611809565b508251610e079067ffffffffffffffff83166001611872565b61ffff8167ffffffffffffffff16116115c25782516115a9906019611fe0600586901b1617611809565b508251610e079067ffffffffffffffff83166002611872565b63ffffffff8167ffffffffffffffff16116116075782516115ee90601a611fe0600586901b1617611809565b508251610e079067ffffffffffffffff83166004611872565b825161161e90601b611fe0600586901b1617611809565b508251610e079067ffffffffffffffff83166008611872565b505050565b60008060008061164c86866118fa565b905061165960018661223a565b94506007600582901c16601f8216601c81106116875760405162461bcd60e51b8152600401610d7e9061237e565b60188160ff1610156116a55790945060ff1692508491506117b29050565b8060ff166018036117025760006116bc89896118fa565b90506116c960018961223a565b975060188160ff1610156116ef5760405162461bcd60e51b8152600401610d7e906123c2565b9195505060ff1692508491506117b29050565b8060ff1660190361173c5760006117198989611949565b905061172660028961223a565b97509195505061ffff1692508491506117b29050565b8060ff16601a036117785760006117538989611982565b905061176060048961223a565b97509195505063ffffffff1692508491506117b29050565b8060ff16601b1461178b5761178b611edf565b600061179789896119bb565b90506117a460088961223a565b975091955090935085925050505b9250925092565b6000806000806117c9868661163c565b965090925067ffffffffffffffff16905060ff8216600114806117ed575060ff8216155b610fcb5760405162461bcd60e51b8152600401610d7e9061242c565b604080518082019091526060815260006020820152825151600061182e82600161223a565b90508460200151821061184f5761184f8561184a83600261243c565b6119f4565b84516020838201018581538151831115611867578282525b509495945050505050565b6040805180820190915260608152600060208201528351516000611896828561223a565b905085602001518111156118b3576118b38661184a83600261243c565b600060016118c386610100612569565b6118cd919061227d565b9050865182810187831982511617815281518411156118ea578382525b50508693505050505b9392505050565b600061190782600161223a565b835110156119275760405162461bcd60e51b8152600401610d7e906125ac565b8282815181106119395761193961224d565b016020015160f81c905092915050565b600061195682600261223a565b835110156119765760405162461bcd60e51b8152600401610d7e906125ac565b50016020015160f01c90565b600061198f82600461223a565b835110156119af5760405162461bcd60e51b8152600401610d7e906125ac565b50016020015160e01c90565b60006119c882600861223a565b835110156119e85760405162461bcd60e51b8152600401610d7e906125ac565b50016020015160c01c90565b8151611a00838361149c565b50610e0783826040805180820190915260608152600060208201526118f3838384516040805180820190915260608152600060208201528251821115611a4557600080fd5b8351516000611a54848361223a565b90508560200151811115611a7157611a718661184a83600261243c565b855180518382016020019160009180851115611a8b578482525b505050602086015b60208610611acb5780518252611aaa60208361223a565b9150611ab760208261223a565b9050611ac460208761227d565b9550611a93565b51815160001960208890036101000a0190811690199190911617905250849150509392505050565b6040518060400160405280611b1b604051806040016040528060608152602001600081525090565b8152602001600081525090565b60005b83811015611b43578181015183820152602001611b2b565b50506000910152565b6000611b56825190565b808452602084019350611b6d818560208601611b28565b601f01601f19169290920192915050565b67ffffffffffffffff81165b82525050565b60408082528101611ba18185611b4c565b90506118f36020830184611b7e565b801515611b8a565b60408082528101611bc98185611b4c565b90506118f36020830184611bb0565b67ffffffffffffffff81165b811461072157600080fd5b803561151081611bd8565b600060208284031215611c0f57611c0f600080fd5b60006107798484611bef565b6000611510611c30611c2d8460070b90565b90565b60070b90565b611b8a81611c1b565b60408101611c4d8285611c36565b6118f36020830184611c36565b602081016115108284611b7e565b602081016115108284611bb0565b634e487b7160e01b600052602260045260246000fd5b600281046001821680611ca057607f821691505b602082108103611cb257611cb2611c76565b50919050565b634e487b7160e01b600052604160045260246000fd5b6000611510611c2d8381565b611ce383611cce565b81546008840282811b60001990911b908116901990911617825550505050565b6000611637818484611cda565b81811015610d5457611d23600082611d03565b600101611d10565b601f821115611637576000818152602090206020601f85010481016020851015611d525750805b611d646020601f860104830182611d10565b5050505050565b815167ffffffffffffffff811115611d8557611d85611cb8565b611d8f8254611c8c565b611d9a828285611d2b565b6020601f831160018114611dce5760008415611db65750858201515b600019600886021c1981166002860217865550611e27565b600085815260208120601f198616915b82811015611dfe5788850151825560209485019460019092019101611dde565b86831015611e1a5784890151600019601f89166008021c191682555b6001600288020188555050505b505050505050565b80611b8a565b600067ffffffffffffffff8216611510565b611b8a81611e35565b60c08101611e5e8289611b7e565b611e6b6020830188611e2f565b611e786040830187611b7e565b611e856060830186611b7e565b8181036080830152611e978185611b4c565b9050611ea660a0830184611e47565b979650505050505050565b6000611ebb825190565b611ec9818560208601611b28565b9290920192915050565b60006118f38284611eb1565b634e487b7160e01b600052600160045260246000fd5b600c81526000602082017f496e76616c69642043424f520000000000000000000000000000000000000000815291505b5060200190565b6020808252810161151081611ef5565b60408101611f4a8285611e2f565b6118f36020830184611e2f565b80611be4565b805161151081611f57565b805161151081611bd8565b601f19601f830116810181811067ffffffffffffffff82111715611f9957611f99611cb8565b6040525050565b6000611fab60405190565b9050611fb78282611f73565b919050565b600067ffffffffffffffff821115611fd657611fd6611cb8565b601f19601f83011660200192915050565b6000611ffa611ff584611fbc565b611fa0565b90508281526020810184848401111561201557612015600080fd5b612020848285611b28565b509392505050565b600082601f83011261203c5761203c600080fd5b8151610779848260208601611fe7565b60008060006060848603121561206457612064600080fd5b60006120708686611f5d565b935050602061208186828701611f68565b925050604084015167ffffffffffffffff8111156120a1576120a1600080fd5b6120ad86828701612028565b9150509250925092565b602081016115108284611e2f565b601f81526000602082017f696e76616c6964206d616a20286578706563746564204d616a4f74686572290081529150611f25565b60208082528101611510816120c5565b601f81526000602082017f696e76616c6964206d616a20286578706563746564204d616a4172726179290081529150611f25565b6020808252810161151081612109565b602581526000602082017f696e76616c6964206d616a20286578706563746564204d616a556e7369676e6581527f64496e7429000000000000000000000000000000000000000000000000000000602082015291505b5060400190565b602080825281016115108161214d565b602e81526000602082017f696e76616c6964206d616a20286578706563746564204d616a546167206f722081527f4d616a42797465537472696e6729000000000000000000000000000000000000602082015291506121a3565b60208082528101611510816121ba565b634e487b7160e01b600052601160045260246000fd5b8082018082111561151057611510612224565b634e487b7160e01b600052603260045260246000fd5b6000600019820361227657612276612224565b5060010190565b8181038181111561151057611510612224565b603581526000602082017f696e76616c6964206d616a20286578706563746564204d616a4279746553747281527f696e67206f72204d616a54657874537472696e67290000000000000000000000602082015291506121a3565b6020808252810161151081612290565b634e487b7160e01b600052601260045260246000fd5b60008261231f5761231f6122fa565b500690565b602581526000602082017f63616e6e6f742068616e646c652068656164657273207769746820657874726181527f203e203237000000000000000000000000000000000000000000000000000000602082015291506121a3565b6020808252810161151081612324565b600c81526000602082017f696e76616c69642063626f72000000000000000000000000000000000000000081529150611f25565b602080825281016115108161238e565b603581526000602082017f696e76616c6964206d616a20286578706563746564204d616a5369676e65644981527f6e74206f72204d616a556e7369676e6564496e74290000000000000000000000602082015291506121a3565b60208082528101611510816123d2565b81810280821583820485141761245457612454612224565b5092915050565b80825b600185111561249a5780860481111561247957612479612224565b600185161561248757908102905b80026124938560011c90565b945061245e565b94509492505050565b6000826124b2575060016118f3565b816124bf575060006118f3565b81600181146124d557600281146124df5761250c565b60019150506118f3565b60ff8411156124f0576124f0612224565b8360020a91508482111561250657612506612224565b506118f3565b5060208310610133831016604e8410600b841016171561253f575081810a8381111561253a5761253a612224565b6118f3565b61254c848484600161245b565b9250905081840481111561256257612562612224565b0292915050565b60006118f360001984846124a3565b601481526000602082017f736c6963696e67206f7574206f662072616e676500000000000000000000000081529150611f25565b602080825281016115108161257856fea26469706673582212207fb4c4c4a415b68052d8992e780d3540f90abd1848998f4e8664d9f1f3ab1db364736f6c63430008110033",
  "linkReferences": {},
  "deployedLinkReferences": {}
}