{
  "_format": "hh-sol-artifact-1",
  "contractName": "DealRewarder",
  "sourceName": "contracts/filecoin-api-examples/DealRewarder.sol",
  "abi": [
    {
      "inputs": [],
      "stateMutability": "nonpayable",
      "type": "constructor"
    },
    {
      "inputs": [
        {
          "internalType": "int256",
          "name": "errorCode",
          "type": "int256"
        }
      ],
      "name": "ActorError",
      "type": "error"
    },
    {
      "inputs": [],
      "name": "ActorNotFound",
      "type": "error"
    },
    {
      "inputs": [],
      "name": "FailToCallActor",
      "type": "error"
    },
    {
      "inputs": [
        {
          "internalType": "uint64",
          "name": "",
          "type": "uint64"
        }
      ],
      "name": "InvalidCodec",
      "type": "error"
    },
    {
      "inputs": [],
      "name": "InvalidResponseLength",
      "type": "error"
    },
    {
      "inputs": [
        {
          "internalType": "uint256",
          "name": "balance",
          "type": "uint256"
        },
        {
          "internalType": "uint256",
          "name": "value",
          "type": "uint256"
        }
      ],
      "name": "NotEnoughBalance",
      "type": "error"
    },
    {
      "inputs": [
        {
          "internalType": "bytes",
          "name": "cidraw",
          "type": "bytes"
        },
        {
          "internalType": "uint256",
          "name": "size",
          "type": "uint256"
        }
      ],
      "name": "addCID",
      "outputs": [],
      "stateMutability": "nonpayable",
      "type": "function"
    },
    {
      "inputs": [
        {
          "internalType": "bytes",
          "name": "cidraw",
          "type": "bytes"
        },
        {
          "internalType": "uint64",
          "name": "provider",
          "type": "uint64"
        },
        {
          "internalType": "uint256",
          "name": "size",
          "type": "uint256"
        }
      ],
      "name": "authorizeData",
      "outputs": [],
      "stateMutability": "nonpayable",
      "type": "function"
    },
    {
      "inputs": [
        {
          "internalType": "uint64",
          "name": "method",
          "type": "uint64"
        },
        {
          "internalType": "uint256",
          "name": "value",
          "type": "uint256"
        },
        {
          "internalType": "uint64",
          "name": "flags",
          "type": "uint64"
        },
        {
          "internalType": "uint64",
          "name": "codec",
          "type": "uint64"
        },
        {
          "internalType": "bytes",
          "name": "params",
          "type": "bytes"
        },
        {
          "internalType": "uint64",
          "name": "id",
          "type": "uint64"
        }
      ],
      "name": "call_actor_id",
      "outputs": [
        {
          "internalType": "bool",
          "name": "",
          "type": "bool"
        },
        {
          "internalType": "int256",
          "name": "",
          "type": "int256"
        },
        {
          "internalType": "uint64",
          "name": "",
          "type": "uint64"
        },
        {
          "internalType": "bytes",
          "name": "",
          "type": "bytes"
        }
      ],
      "stateMutability": "nonpayable",
      "type": "function"
    },
    {
      "inputs": [
        {
          "internalType": "bytes",
          "name": "",
          "type": "bytes"
        },
        {
          "internalType": "uint64",
          "name": "",
          "type": "uint64"
        }
      ],
      "name": "cidProviders",
      "outputs": [
        {
          "internalType": "bool",
          "name": "",
          "type": "bool"
        }
      ],
      "stateMutability": "view",
      "type": "function"
    },
    {
      "inputs": [
        {
          "internalType": "bytes",
          "name": "",
          "type": "bytes"
        }
      ],
      "name": "cidSet",
      "outputs": [
        {
          "internalType": "bool",
          "name": "",
          "type": "bool"
        }
      ],
      "stateMutability": "view",
      "type": "function"
    },
    {
      "inputs": [
        {
          "internalType": "bytes",
          "name": "",
          "type": "bytes"
        }
      ],
      "name": "cidSizes",
      "outputs": [
        {
          "internalType": "uint256",
          "name": "",
          "type": "uint256"
        }
      ],
      "stateMutability": "view",
      "type": "function"
    },
    {
      "inputs": [
        {
          "internalType": "uint64",
          "name": "deal_id",
          "type": "uint64"
        }
      ],
      "name": "claim_bounty",
      "outputs": [],
      "stateMutability": "nonpayable",
      "type": "function"
    },
    {
      "inputs": [
        {
          "internalType": "uint64",
          "name": "unused",
          "type": "uint64"
        }
      ],
      "name": "fund",
      "outputs": [],
      "stateMutability": "payable",
      "type": "function"
    },
    {
      "inputs": [],
      "name": "owner",
      "outputs": [
        {
          "internalType": "address",
          "name": "",
          "type": "address"
        }
      ],
      "stateMutability": "view",
      "type": "function"
    }
  ],
  "bytecode": "0x608060405234801561001057600080fd5b50600380546001600160a01b03191633179055611ee1806100326000396000f3fe6080604052600436106100965760003560e01c80638da5cb5b11610069578063b97c601a1161004e578063b97c601a146101f9578063d4a0cd0a14610219578063e1fb0bba1461023957600080fd5b80638da5cb5b1461017a5780638f8a6d8f146101b457600080fd5b80631a7fd6c61461009b5780633d7650b2146100fc5780634f9c09cc146101375780636aba510b1461014a575b600080fd5b3480156100a757600080fd5b506100e66100b63660046113c5565b81516020818401810180516002825292820194820194909420919093529091526000908152604090205460ff1681565b6040516100f39190611426565b60405180910390f35b34801561010857600080fd5b506100e6610117366004611434565b805160208183018101805160008252928201919093012091525460ff1681565b61014861014536600461146f565b50565b005b34801561015657600080fd5b5061016a6101653660046114a1565b610259565b6040516100f394939291906115b2565b34801561018657600080fd5b506003546101a79073ffffffffffffffffffffffffffffffffffffffff1681565b6040516100f3919061161d565b3480156101c057600080fd5b506101ec6101cf366004611434565b805160208183018101805160018252928201919093012091525481565b6040516100f3919061162b565b34801561020557600080fd5b50610148610214366004611639565b61033d565b34801561022557600080fd5b506101486102343660046116ee565b610438565b34801561024557600080fd5b5061014861025436600461146f565b6104b8565b6000806000606060008073fe0000000000000000000000000000000000000573ffffffffffffffffffffffffffffffffffffffff168c8c8c8c8c8c6040516020016102a99695949392919061173f565b60408051601f19818403018152908290526102c3916117c2565b600060405180830381855af49150503d80600081146102fe576040519150601f19603f3d011682016040523d82523d6000602084013e610303565b606091505b5091509150600080600083806020019051810190610321919061183c565b969a509098509650939450505050509650965096509692505050565b60008360405161034d91906117c2565b9081526040519081900360200190205460ff166103855760405162461bcd60e51b815260040161037c906118fa565b60405180910390fd5b8060018460405161039691906117c2565b908152602001604051809103902054146103c25760405162461bcd60e51b815260040161037c90611941565b6103cc8383610514565b6103e85760405162461bcd60e51b815260040161037c906119ab565b60016002846040516103fa91906117c2565b908152604080516020928190038301902067ffffffffffffffff95909516600090815294909152909220805460ff1916921515929092179091555050565b60035473ffffffffffffffffffffffffffffffffffffffff16331461045c57600080fd5b6001600084846040516104709291906119ce565b908152604051908190036020018120805492151560ff199093169290921790915581906001906104a390869086906119ce565b90815260405190819003602001902055505050565b60006104c38261055b565b905060006104d0836105b2565b90506104ef826000015182846020015167ffffffffffffffff1661033d565b60006104fa846105ed565b90506105058161061d565b61050e8161061d565b50505050565b60008060028460405161052791906117c2565b908152604080516020928190038301902067ffffffffffffffff86166000908152925290205460ff16159150505b92915050565b60408051808201909152606081526000602082015260006105858367ffffffffffffffff1661064a565b9050600061059f6005634505760a60518560006001610683565b90506105aa81610790565b949350505050565b6000806105c88367ffffffffffffffff1661064a565b905060006105e260056337bc36da60518560006001610683565b90506105aa8161080d565b6000806106038367ffffffffffffffff1661064a565b905060006105e260056307a1f05160518560006001610683565b6040805160208101909152600090819052606090670de0b6b3a76400009061050e90849080858582610683565b606060006106618367ffffffffffffffff16610824565b9050600061066e82610872565b905061067a8185610893565b6105aa816108a3565b60606106a373fe00000000000000000000000000000000000005846108cf565b60008073fe000000000000000000000000000000000000058886866106c95760006106cc565b60015b8a8a8e6040516020016106e4969594939291906119f6565b60408051601f19818403018152908290526106fe916117c2565b600060405180830381855af49150503d8060008114610739576040519150601f19603f3d011682016040523d82523d6000602084013e61073e565b606091505b50915091508161077a576040517f8a7db5bf00000000000000000000000000000000000000000000000000000000815260040160405180910390fd5b61078381610949565b9998505050505050505050565b6040805180820190915260608152600060208201526000806107b28482610a57565b9250905080156107ed576107c68483610aa9565b90845291506107d58483610c32565b67ffffffffffffffff90911660208501529150610806565b6040805160008082526020808301909352908552908401525b5050919050565b6000808061081b8482610c32565b50949350505050565b60006017821161083657506001919050565b60ff821161084657506002919050565b61ffff821161085757506003919050565b63ffffffff821161086a57506005919050565b506009919050565b61087a611273565b80516108869083610c74565b5060006020820152919050565b61089f82600083610ceb565b5050565b606081602001516000146108c95760405162461bcd60e51b815260040161037c90611a80565b50515190565b478181101561090e5780826040517f8f0f420600000000000000000000000000000000000000000000000000000000815260040161037c929190611a90565b823f15158061050e576040517f64d954b000000000000000000000000000000000000000000000000000000000815260040160405180910390fd5b6060600080600084806020019051810190610964919061183c565b9194509250905067ffffffffffffffff821661099f5780511561099a57604051630e74990760e01b815260040160405180910390fd5b610a1d565b67ffffffffffffffff8216605114806109c2575067ffffffffffffffff82166071145b156109e957805160000361099a57604051630e74990760e01b815260040160405180910390fd5b816040517ff1f6bced00000000000000000000000000000000000000000000000000000000815260040161037c9190611aab565b82156105aa57826040517fd4bb667100000000000000000000000000000000000000000000000000000000815260040161037c919061162b565b600080600080610a678686610e0c565b965090925067ffffffffffffffff16905060ff8216600414610a9b5760405162461bcd60e51b815260040161037c90611aed565b9250839150505b9250929050565b60606000806000610aba8686610e0c565b965090925067ffffffffffffffff16905060ff821660061480610ae0575060ff82166002145b610afc5760405162461bcd60e51b815260040161037c90611b57565b60051960ff831601610b3657610b128686610e0c565b965090925067ffffffffffffffff16905060ff8216600214610b3657610b36611b67565b6000610b428287611b93565b905060008267ffffffffffffffff811115610b5f57610b5f6112a8565b6040519080825280601f01601f191660200182016040528015610b89576020820181803683370190505b5090506000875b83811015610c1657898181518110610baa57610baa611ba6565b602001015160f81c60f81b838381518110610bc757610bc7611ba6565b60200101907effffffffffffffffffffffffffffffffffffffffffffffffffffffffffffff1916908160001a90535081610c0081611bbc565b9250508080610c0e90611bbc565b915050610b90565b5081610c22858a611b93565b9650965050505050509250929050565b600080600080610c428686610e0c565b965090925067ffffffffffffffff16905060ff821615610a9b5760405162461bcd60e51b815260040161037c90611c30565b604080518082019091526060815260006020820152610c94602083611c56565b15610cbc57610ca4602083611c56565b610caf906020611c6a565b610cb99083611b93565b91505b602080840183905260405180855260008152908184010181811015610ce057600080fd5b604052509192915050565b60178167ffffffffffffffff1611610d1257825161050e9060e0600585901b168317610f89565b60ff8167ffffffffffffffff1611610d54578251610d3b906018611fe0600586901b1617610f89565b50825161050e9067ffffffffffffffff83166001610ff2565b61ffff8167ffffffffffffffff1611610d97578251610d7e906019611fe0600586901b1617610f89565b50825161050e9067ffffffffffffffff83166002610ff2565b63ffffffff8167ffffffffffffffff1611610ddc578251610dc390601a611fe0600586901b1617610f89565b50825161050e9067ffffffffffffffff83166004610ff2565b8251610df390601b611fe0600586901b1617610f89565b50825161050e9067ffffffffffffffff83166008610ff2565b600080600080610e1c868661107a565b9050610e29600186611b93565b94506007600582901c16601f8216601c8110610e575760405162461bcd60e51b815260040161037c90611cd7565b60188160ff161015610e755790945060ff169250849150610f829050565b8060ff16601803610ed2576000610e8c898961107a565b9050610e99600189611b93565b975060188160ff161015610ebf5760405162461bcd60e51b815260040161037c90611d1b565b9195505060ff169250849150610f829050565b8060ff16601903610f0c576000610ee989896110c9565b9050610ef6600289611b93565b97509195505061ffff169250849150610f829050565b8060ff16601a03610f48576000610f238989611102565b9050610f30600489611b93565b97509195505063ffffffff169250849150610f829050565b8060ff16601b14610f5b57610f5b611b67565b6000610f67898961113b565b9050610f74600889611b93565b975091955090935085925050505b9250925092565b6040805180820190915260608152600060208201528251516000610fae826001611b93565b905084602001518210610fcf57610fcf85610fca836002611d2b565b611174565b84516020838201018581538151831115610fe7578282525b509495945050505050565b60408051808201909152606081526000602082015283515160006110168285611b93565b905085602001518111156110335761103386610fca836002611d2b565b6000600161104386610100611e58565b61104d9190611c6a565b90508651828101878319825116178152815184111561106a578382525b50508693505050505b9392505050565b6000611087826001611b93565b835110156110a75760405162461bcd60e51b815260040161037c90611e9b565b8282815181106110b9576110b9611ba6565b016020015160f81c905092915050565b60006110d6826002611b93565b835110156110f65760405162461bcd60e51b815260040161037c90611e9b565b50016020015160f01c90565b600061110f826004611b93565b8351101561112f5760405162461bcd60e51b815260040161037c90611e9b565b50016020015160e01c90565b6000611148826008611b93565b835110156111685760405162461bcd60e51b815260040161037c90611e9b565b50016020015160c01c90565b81516111808383610c74565b5061050e83826040805180820190915260608152600060208201526110738383845160408051808201909152606081526000602082015282518211156111c557600080fd5b83515160006111d48483611b93565b905085602001518111156111f1576111f186610fca836002611d2b565b85518051838201602001916000918085111561120b578482525b505050602086015b6020861061124b578051825261122a602083611b93565b9150611237602082611b93565b9050611244602087611c6a565b9550611213565b51815160001960208890036101000a0190811690199190911617905250849150509392505050565b604051806040016040528061129b604051806040016040528060608152602001600081525090565b8152602001600081525090565b634e487b7160e01b600052604160045260246000fd5b601f19601f830116810181811067ffffffffffffffff821117156112e4576112e46112a8565b6040525050565b60006112f660405190565b905061130282826112be565b919050565b600067ffffffffffffffff821115611321576113216112a8565b601f19601f83011660200192915050565b82818337506000910152565b600061135161134c84611307565b6112eb565b90508281526020810184848401111561136c5761136c600080fd5b611377848285611332565b509392505050565b600082601f83011261139357611393600080fd5b81356105aa84826020860161133e565b67ffffffffffffffff81165b811461014557600080fd5b8035610555816113a3565b600080604083850312156113db576113db600080fd5b823567ffffffffffffffff8111156113f5576113f5600080fd5b6114018582860161137f565b9250506020611412858286016113ba565b9150509250929050565b8015155b82525050565b60208101610555828461141c565b60006020828403121561144957611449600080fd5b813567ffffffffffffffff81111561146357611463600080fd5b6105aa8482850161137f565b60006020828403121561148457611484600080fd5b60006105aa84846113ba565b806113af565b803561055581611490565b60008060008060008060c087890312156114bd576114bd600080fd5b60006114c989896113ba565b96505060206114da89828a01611496565b95505060406114eb89828a016113ba565b94505060606114fc89828a016113ba565b935050608087013567ffffffffffffffff81111561151c5761151c600080fd5b61152889828a0161137f565b92505060a061153989828a016113ba565b9150509295509295509295565b80611420565b67ffffffffffffffff8116611420565b60005b8381101561157757818101518382015260200161155f565b50506000910152565b600061158a825190565b8084526020840193506115a181856020860161155c565b601f01601f19169290920192915050565b608081016115c0828761141c565b6115cd6020830186611546565b6115da604083018561154c565b81810360608301526115ec8184611580565b9695505050505050565b600073ffffffffffffffffffffffffffffffffffffffff8216610555565b611420816115f6565b602081016105558284611614565b602081016105558284611546565b60008060006060848603121561165157611651600080fd5b833567ffffffffffffffff81111561166b5761166b600080fd5b6116778682870161137f565b9350506020611688868287016113ba565b925050604061169986828701611496565b9150509250925092565b60008083601f8401126116b8576116b8600080fd5b50813567ffffffffffffffff8111156116d3576116d3600080fd5b602083019150836001820283011115610aa257610aa2600080fd5b60008060006040848603121561170657611706600080fd5b833567ffffffffffffffff81111561172057611720600080fd5b61172c868287016116a3565b9350935050602061169986828701611496565b60c0810161174d828961154c565b61175a6020830188611546565b611767604083018761154c565b611774606083018661154c565b81810360808301526117868185611580565b905061179560a083018461154c565b979650505050505050565b60006117aa825190565b6117b881856020860161155c565b9290920192915050565b600061107382846117a0565b805161055581611490565b8051610555816113a3565b60006117f261134c84611307565b90508281526020810184848401111561180d5761180d600080fd5b61137784828561155c565b600082601f83011261182c5761182c600080fd5b81516105aa8482602086016117e4565b60008060006060848603121561185457611854600080fd5b600061186086866117ce565b9350506020611871868287016117d9565b925050604084015167ffffffffffffffff81111561189157611891600080fd5b61169986828701611818565b602481526000602082017f636964206d757374206265206164646564206265666f726520617574686f726981527f7a696e6700000000000000000000000000000000000000000000000000000000602082015291505b5060400190565b602080825281016105558161189d565b601d81526000602082017f646174612073697a65206d757374206d61746368206578706563746564000000815291505b5060200190565b602080825281016105558161190a565b604081526000602082017f6465616c206661696c656420706f6c69637920636865636b3a2068617320707281527f6f766964657220616c726561647920636c61696d65642074686973206369643f602082015291506118f3565b6020808252810161055581611951565b60006119c8838584611332565b50500190565b60006105aa8284866119bb565b600067ffffffffffffffff8216610555565b611420816119db565b60c08101611a04828961154c565b611a116020830188611546565b611a1e604083018761154c565b611a2b606083018661154c565b8181036080830152611a3d8185611580565b905061179560a08301846119ed565b600c81526000602082017f496e76616c69642043424f5200000000000000000000000000000000000000008152915061193a565b6020808252810161055581611a4c565b60408101611a9e8285611546565b6110736020830184611546565b60208101610555828461154c565b601f81526000602082017f696e76616c6964206d616a20286578706563746564204d616a417272617929008152915061193a565b6020808252810161055581611ab9565b602e81526000602082017f696e76616c6964206d616a20286578706563746564204d616a546167206f722081527f4d616a42797465537472696e6729000000000000000000000000000000000000602082015291506118f3565b6020808252810161055581611afd565b634e487b7160e01b600052600160045260246000fd5b634e487b7160e01b600052601160045260246000fd5b8082018082111561055557610555611b7d565b634e487b7160e01b600052603260045260246000fd5b60006000198203611bcf57611bcf611b7d565b5060010190565b602581526000602082017f696e76616c6964206d616a20286578706563746564204d616a556e7369676e6581527f64496e7429000000000000000000000000000000000000000000000000000000602082015291506118f3565b6020808252810161055581611bd6565b634e487b7160e01b600052601260045260246000fd5b600082611c6557611c65611c40565b500690565b8181038181111561055557610555611b7d565b602581526000602082017f63616e6e6f742068616e646c652068656164657273207769746820657874726181527f203e203237000000000000000000000000000000000000000000000000000000602082015291506118f3565b6020808252810161055581611c7d565b600c81526000602082017f696e76616c69642063626f7200000000000000000000000000000000000000008152915061193a565b6020808252810161055581611ce7565b818102808215838204851417611d4357611d43611b7d565b5092915050565b80825b6001851115611d8957808604811115611d6857611d68611b7d565b6001851615611d7657908102905b8002611d828560011c90565b9450611d4d565b94509492505050565b600082611da157506001611073565b81611dae57506000611073565b8160018114611dc45760028114611dce57611dfb565b6001915050611073565b60ff841115611ddf57611ddf611b7d565b8360020a915084821115611df557611df5611b7d565b50611073565b5060208310610133831016604e8410600b8410161715611e2e575081810a83811115611e2957611e29611b7d565b611073565b611e3b8484846001611d4a565b92509050818404811115611e5157611e51611b7d565b0292915050565b60006110736000198484611d92565b601481526000602082017f736c6963696e67206f7574206f662072616e67650000000000000000000000008152915061193a565b6020808252810161055581611e6756fea264697066735822122026418493304842d1b77cb948f5d356ddacdc623316f27c1a46fe45ecea09a58b64736f6c63430008110033",
  "linkReferences": {},
  "deployedLinkReferences": {}
}