{
  "_format": "hh-sol-artifact-1",
  "contractName": "SimpleCoin",
  "sourceName": "contracts/basic-solidity-examples/SimpleCoin.sol",
  "abi": [
    {
      "inputs": [
        {
          "internalType": "uint256",
          "name": "tokensToBeMinted",
          "type": "uint256"
        }
      ],
      "stateMutability": "nonpayable",
      "type": "constructor"
    },
    {
      "inputs": [],
      "name": "SimpleCoin__NotEnoughBalance",
      "type": "error"
    },
    {
      "anonymous": false,
      "inputs": [
        {
          "indexed": true,
          "internalType": "uint256",
          "name": "numberTokensMinted",
          "type": "uint256"
        },
        {
          "indexed": false,
          "internalType": "address",
          "name": "owner",
          "type": "address"
        }
      ],
      "name": "tokensMinted",
      "type": "event"
    },
    {
      "inputs": [
        {
          "internalType": "address",
          "name": "",
          "type": "address"
        }
      ],
      "name": "balances",
      "outputs": [
        {
          "internalType": "uint256",
          "name": "",
          "type": "uint256"
        }
      ],
      "stateMutability": "view",
      "type": "function"
    },
    {
      "inputs": [
        {
          "internalType": "address",
          "name": "addr",
          "type": "address"
        }
      ],
      "name": "getBalance",
      "outputs": [
        {
          "internalType": "uint256",
          "name": "",
          "type": "uint256"
        }
      ],
      "stateMutability": "view",
      "type": "function"
    },
    {
      "inputs": [],
      "name": "getMintedTokenBalance",
      "outputs": [
        {
          "internalType": "uint256",
          "name": "",
          "type": "uint256"
        }
      ],
      "stateMutability": "view",
      "type": "function"
    },
    {
      "inputs": [
        {
          "internalType": "address",
          "name": "receiver",
          "type": "address"
        },
        {
          "internalType": "uint256",
          "name": "amount",
          "type": "uint256"
        }
      ],
      "name": "sendCoin",
      "outputs": [
        {
          "internalType": "bool",
          "name": "sufficient",
          "type": "bool"
        }
      ],
      "stateMutability": "nonpayable",
      "type": "function"
    }
  ],
  "bytecode": "0x608060405234801561001057600080fd5b5060405161058338038061058383398101604081905261002f9161008f565b326000908152602081905260409081902082905560018290555181907f98f1e05ac89e19c9c4e467fdf3269e120060140cd5907933dc7e099cea61900b906100789033906100d8565b60405180910390a2506100e6565b80515b92915050565b6000602082840312156100a4576100a4600080fd5b60006100b08484610086565b949350505050565b60006001600160a01b038216610089565b6100d2816100b8565b82525050565b6020810161008982846100c9565b61048e806100f56000396000f3fe608060405234801561001057600080fd5b506004361061004c5760003560e01c806327e235e31461005157806337a151b81461008757806390b98a111461008f578063f8b2cb4f146100af575b600080fd5b61007161005f36600461029a565b60006020819052908152604090205481565b60405161007e91906102cb565b60405180910390f35b600154610071565b6100a261009d3660046102ea565b6100e5565b60405161007e919061032f565b6100716100bd36600461029a565b73ffffffffffffffffffffffffffffffffffffffff1660009081526020819052604090205490565b3360009081526020819052604081205482111561012e576040517f86e25f3100000000000000000000000000000000000000000000000000000000815260040160405180910390fd5b336000908152602081905260408120805484929061014d90849061036c565b909155505073ffffffffffffffffffffffffffffffffffffffff83166000908152602081905260408120805484929061018790849061037f565b925050819055506101b2604051806060016040528060248152602001610435602491393385856101bc565b5060015b92915050565b610233848484846040516024016101d694939291906103f1565b60408051601f198184030181529190526020810180517bffffffffffffffffffffffffffffffffffffffffffffffffffffffff167f8ef3f39900000000000000000000000000000000000000000000000000000000179052610239565b50505050565b80516a636f6e736f6c652e6c6f67602083016000808483855afa5050505050565b600073ffffffffffffffffffffffffffffffffffffffff82166101b6565b6102818161025a565b811461028c57600080fd5b50565b80356101b681610278565b6000602082840312156102af576102af600080fd5b60006102bb848461028f565b949350505050565b805b82525050565b602081016101b682846102c3565b80610281565b80356101b6816102d9565b6000806040838503121561030057610300600080fd5b600061030c858561028f565b925050602061031d858286016102df565b9150509250929050565b8015156102c5565b602081016101b68284610327565b7f4e487b7100000000000000000000000000000000000000000000000000000000600052601160045260246000fd5b818103818111156101b6576101b661033d565b808201808211156101b6576101b661033d565b60005b838110156103ad578181015183820152602001610395565b50506000910152565b60006103c0825190565b8084526020840193506103d7818560208601610392565b601f01601f19169290920192915050565b6102c58161025a565b6080808252810161040281876103b6565b905061041160208301866103e8565b61041e60408301856103e8565b61042b60608301846102c3565b9594505050505056fe5472616e7366657272696e672066726f6d20257320746f20257320257320746f6b656e73a2646970667358221220c4c4b517e1dbaeebd0b7d0f2a85f72393532a30b3acce59764ca3fa965d62cb964736f6c63430008110033",
  "linkReferences": {},
  "deployedLinkReferences": {}
}